:020000040800F2
:10000000000004206D170008110C0008130C0008F4
:10001000150C0008170C0008190C0008000000005F
:100020000000000000000000000000001B0C0008A1
:100030001D0C0008000000001F0C0008210C000827
:10004000BD170008BD170008BD170008BD17000840
:10005000BD170008BD170008BD170008BD17000830
:10006000BD170008BD170008BD170008BD17000820
:10007000BD170008BD170008BD170008BD17000810
:10008000BD170008BD170008BD170008BD17000800
:10009000BD170008BD170008BD170008BD170008F0
:1000A000BD170008BD170008BD170008BD170008E0
:1000B000BD170008BD170008BD170008BD170008D0
:1000C000BD170008BD170008BD170008BD170008C0
:1000D000BD170008BD170008BD170008BD170008B0
:1000E000BD170008BD170008BD170008BD170008A0
:1000F000BD170008BD170008BD170008BD17000890
:10010000BD170008BD170008BD170008BD1700087F
:10011000BD170008BD170008BD170008BD1700086F
:10012000BD170008BD170008BD170008BD1700085F
:10013000BD170008000000000000000000000000E3
:10014000000000000000000000000000BD170008D3
:10015000BD170008BD170008BD170008BD1700082F
:10016000BD170008BD170008BD170008BD1700081F
:10017000BD170008BD1700080000000000000000C7
:10018000BD170008BD170008BD170008BD170008FF
:10019000BD170008BD17000800000000BD170008CB
:1001A000000000000000000000000000BD17000873
:1001B000BD170008BD170008000000000000000087
:1001C000000000000000000000000000000000002F
:1001D000000000000000000000000000BD17000843
:100200000348044B834202D0034B03B118477047A5
:100210000C0000200C000020000000000548064BE8
:100220001B1AD90F01EBA301491002D0034B03B1F4
:10023000184770470C0000200C0000200000000050
:1002400010B5064C237843B9FFF7DAFF044B13B11E
:100250000448AFF300800123237010BD0C00002080
:1002600000000000C017000808B5044B1BB104498A
:100270000448AFF30080BDE80840CFE7000000006D
:1002800010000020C0170008830710B5044610D1E5
:100290000268A2F1013323EA020313F0803F08D180
:1002A00050F8042FA2F1013323EA020313F0803F38
:1002B000F6D003781BB110F8013F002BFBD100F002
:1002C00003F8204610BD00BF80EA0102844612F008
:1002D000030F4FD111F0030F32D14DF8044D11F03F
:1002E000040F51F8043B0BD0A3F101329A4312F0F2
:1002F000803F04BF4CF8043B51F8043B16D100BFCB
:1003000051F8044BA3F101329A4312F0803FA4F15B
:1003100001320BD14CF8043BA24312F0803F04BFE2
:1003200051F8043B4CF8044BEAD023460CF8013B4F
:1003300013F0FF0F4FEA3323F8D15DF8044B7047F9
:1003400011F0010F06D011F8012B0CF8012B002A37
:1003500008BF704711F0020FBFD031F8022B12F026
:10036000FF0F16BF2CF8022B8CF8002012F47F4FE1
:10037000B3D1704711F8012B0CF8012B002AF9D1E9
:10038000704700BF70B50F4B0F4DAB42A3EB050696
:1003900007D0B610002455F8043B01349847A64214
:1003A000F9D801F00DFA094D094B5E1BAB424FEA3B
:1003B000A60606D0002455F8043B01349847A6420F
:1003C000F9D870BD9018000890180008901800081F
:1003D0009418000800000000000000000000000069
:1003E000000000000000000000000000000000000D
:1003F00000000000000000000000000000000000FD
:1004000030B490F800F020F007016FF0000C10F00D
:10041000070491F820F040F048804FF000046FF09E
:100420000700D1E9002391F840F000F1080082FABA
:100430004CF2A4FA8CF283FA4CF3A2FA8CF34BBB85
:10044000D1E9022382FA4CF200F10800A4FA8CF2FE
:1004500083FA4CF3A2FA8CF3E3B9D1E9042382FACC
:100460004CF200F10800A4FA8CF283FA4CF3A2FAE1
:100470008CF37BB9D1E9062301F1200182FA4CF219
:1004800000F10800A4FA8CF283FA4CF3A2FA8CF380
:10049000002BC6D0002A04BF04301A4612BAB2FAA2
:1004A00082F200EBD20030BC7047D1E9002304F0A7
:1004B0000305C4F100004FEAC50514F0040F91F8DC
:1004C00040F00CFA05F562EA05021CBF63EA050379
:1004D00062464FF00004AAE7830730B547D0541EA8
:1004E000002A3ED0CAB2034601E0013C39D303F8EA
:1004F000012B9D07F9D1032C2CD9CDB205EB052595
:100500000F2C05EB054535D9A4F1100222F00F0C94
:1005100003F1100EE6444FEA121C1A46C2E90055D8
:10052000C2E9025510327245F8D10CF1010214F003
:100530000C0F03EB021204F00F0C13D0ACF1040308
:1005400023F003030433134442F8045B9342FBD1CA
:100550000CF003042CB1C9B21C4403F8011BA342E4
:10056000FBD130BD64461346002CF4D1F9E70346B5
:100570001446C0E71A46A446E0E700BF53B94AB99B
:10058000002908BF00281CBF4FF0FF314FF0FF309B
:1005900000F06AB9ADF1080C6DE904CE00F006F880
:1005A000DDF804E0DDE9022304B070472DE9F047EF
:1005B000089D0E4604460F46002B4AD194468C45B2
:1005C000B2FA82F260D942B1C2F12003974020FA18
:1005D00003F30CFA02FC1F4394404FEA1C4E1FFA2F
:1005E0008CF6B7FBFEF1230C0EFB117743EA0743B1
:1005F00001FB06F098420AD91CEB030301F1FF3717
:1006000080F01581984240F21281023963441B1A2E
:10061000A4B2B3FBFEF00EFB103344EA034400FB2C
:1006200006F6A6420AD91CEB040400F1FF3380F061
:100630000081A64240F2FD806444023840EA014055
:10064000A41B00211DB1D4400023C5E90043BDE82F
:10065000F0878B4205D90DB1C5E90001002108469C
:10066000F5E7B3FA83F1002946D1B34202D38242BF
:1006700000F2F580841A66EB030201201746002D74
:10068000E5D0C5E90047E2E7002A40F09380A1EBFE
:100690000C034FEA1C471FFA8CFE0121B3FBF7F64F
:1006A00007FB1630230C43EA00430EFB06F098428A
:1006B00008D91CEB030306F1FF3802D2984200F27E
:1006C000D08046461B1AA4B2B3FBF7F007FB1033E9
:1006D00044EA03440EFB00FEA64508D91CEB0404C3
:1006E00000F1FF3302D2A64500F2B6801846A4EB13
:1006F0000E0440EA0640A5E7C1F120078B4022FA2C
:1007000007FC4CEA030C06FA01FE20FA07F426FA6D
:1007100007F344EA0E0400FA01F84FEA1C404FEADE
:100720001449B3FBF0FE1FFA8CF600FB1E3349EAB6
:1007300003430EFB06F9994502FA01F20BD91CEBB3
:1007400003030EF1FF3A80F08580994540F28280E4
:10075000AEF1020E6344A3EB0909A4B2B9FBF0F3B6
:1007600000FB139944EA094403FB06F6A64208D9A4
:100770001CEB040403F1FF3068D2A64266D9023BA9
:10078000644443EA0E40A41BA0FB02E6B442734655
:10079000B14652D34FD05DB1B8EB030264EB09040C
:1007A00004FA07F722FA01F31F43CC40C5E90074AD
:1007B00000214CE7C2F1200120FA01F30CFA02FCFF
:1007C00026FA01F1964033434FEA1C471FFA8CFE8C
:1007D000B1FBF7F007FB1016190C41EA064100FBCC
:1007E0000EF68E4204FA02F408D91CEB010100F166
:1007F000FF382DD28E422BD902386144891B9BB21F
:10080000B1FBF7F607FB161143EA014306FB0EF1B5
:10081000994208D91CEB030306F1FF3814D2994220
:1008200012D9023E63445B1A46EA004136E7394674
:10083000EDE6184602E7F045ADD2BEEB020366EBEB
:100840000C060138B146A6E74646ECE7034698E7B2
:100850004046D3E7D6467EE76444023847E7084679
:100860000DE7023E63442DE7704700BF4138192869
:1008700040D8DFE800F00D410F11131517191B1DAB
:100880001F21232527292B2D2F31333537393B3D88
:100890001A4870471A4870471A4870471A487047F4
:1008A0001A4870471A4870471A4870471A487047E4
:1008B0001A4870471A4870471A4870471A487047D4
:1008C0001A4870471A4870471A4870471A487047C4
:1008D0001A4870471A4870471A4870471A487047B4
:1008E0001A4870471A4870471A4870471A487047A4
:1008F0001A4870471A4870471A487047D8170008B6
:10090000E4170008EC170008F0170008F4170008B7
:10091000FC17000800180008081800080C18000848
:1009200014180008181800082018000824180008D7
:10093000281800082C180008341800083C18000873
:100940004018000844180008481800084C1800080F
:1009500054180008581800086018000868180008A3
:1009600010180008DC17000870B506460D46002474
:100970000C700CE0FFF77AFF01462846FFF784FC75
:100980002846FFF73DFD044B1B882B520134305D98
:100990000028EFD170BD00BF7018000810B584B0FA
:1009A0000024009401940294039400F0BDF9012303
:1009B0008DF800308DF8014001941F228DF8082039
:1009C00087228DF809208DF80A408DF80B408DF8AC
:1009D0000C308DF80D308DF80E408DF80F406846C4
:1009E00000F0C0F9042000F0ADF904B010BD000023
:1009F00010B5094C01224FF48041204600F010FE52
:100A00004FF4FA7000F094FE00224FF4804120462B
:100A100000F006FE10BD00BF0004024010B5094CF6
:100A200001224FF48041204600F0FAFD40F2DC50F4
:100A300000F07EFE00224FF48041204600F0F0FDE1
:100A400010BD00BF0004024008B500224FF48041F1
:100A5000034800F0E5FD4FF47A7000F069FE08BD30
:100A60000004024030B589B0002403940494059436
:100A7000069407941C4B1A6B42F004021A631A6B1B
:100A800002F004020092009A1A6B42F080021A638C
:100A90001A6B02F080020192019A1A6B42F0020274
:100AA0001A631B6B03F002030293029B0F4D224655
:100AB0004FF48041284600F0B3FD4FF400530393F8
:100AC00004940223059303A9094800F0B5FC4FF4F0
:100AD00080430393012304930594069403A92846B5
:100AE00000F0AAFC09B030BD00380240000402400A
:100AF0000008024072B6FEE700B595B03022002132
:100B000008A8FFF7E9FC00230393049305930693D9
:100B10000793234B1A6C42F080521A641B6C03F04B
:100B200080530193019B1F4B1A6842F440421A60A4
:100B30001B6803F440430293029B012308934FF484
:100B4000A023099302230E934FF480020F920422F4
:100B50001092D822119212930923139308A800F03F
:100B60002DF9B0B900F062FDA8B90F230393022359
:100B70000493002305934FF4A05306934FF480533E
:100B80000793072103A800F0A1FB30B915B05DF869
:100B900004FBFFF7AFFFFFF7ADFFFFF7ABFF00BFB1
:100BA000003802400070004010B517491748FFF7A1
:100BB000DBFEFFF7F3FE00F09DFDFFF79DFFFFF763
:100BC00051FF0AE02E2B0AD07C2B16D02D2B0DD0F6
:100BD00001340D4B1B5D002BF4D10024F9E7FFF726
:100BE00007FF4FF4FA7000F0A3FDF1E7FFF716FFDF
:100BF0004FF4FA7000F09CFDEAE7FFF725FF4FF491
:100C0000FA7000F095FDE3E7280000207418000852
:100C1000FEE7FEE7FEE7FEE7FEE770477047704736
:100C200008B500F073FD08BD82B00A4B1A6C42F0A3
:100C300080521A641A6C02F080520092009A5A6C28
:100C400042F480425A645B6C03F480430193019B3D
:100C500002B0704700380240002804DB0901C9B225
:100C6000044B1954704700F00F000901C9B2024B40
:100C70001954704700E400E014ED00E000B500F006
:100C80000700C0F1070CBCF1040F28BF4FF0040CA3
:100C9000031D062B0FD9C31E4FF0FF3E0EFA0CF0BA
:100CA00021EA000199400EFA03FE22EA0E0241EA0F
:100CB00002005DF804FB0023EEE700000649CB6864
:100CC00023F4E0631B041B0C000200F4E060034308
:100CD000024A1A43CA60704700ED00E00000FA05BE
:100CE00010B50446054BD868C0F30220FFF7C6FFD5
:100CF00001462046FFF7B0FF10BD00BF00ED00E049
:100D00000138B0F1807F0BD24FF0E0235861054AE3
:100D1000F02182F823100020986107221A617047A1
:100D20000120704700ED00E0BFF35F8F044B5A6A6B
:100D300022F480325A620022C3F89420704700BF28
:100D400000ED00E040F00100054BC3F894005A6A42
:100D500042F480325A62BFF34F8FBFF36F8F7047F8
:100D600000ED00E04378144AC2F89830D2F8A03081
:100D700023F00103C2F8A0304368C2F89C30017B25
:100D8000C37A1B0643EA0173817A43EAC143417B7C
:100D900043EA8143817B43EA4143C17B43EA014308
:100DA000417A43EA0123017A43EA410301780B4384
:100DB000C2F8A030704700BF00ED00E0002800F04E
:100DC000FF8170B582B00446036813F0010F29D08B
:100DD000954B9B6803F00C03042B1AD0924B9B6835
:100DE00003F00C03082B0FD06368B3F5803F40D0AD
:100DF000002B54D18C4B1A6822F480321A601A6886
:100E000022F480221A6039E0874B5B6813F4800F6C
:100E1000EAD0854B1B6813F4003F03D06368002BB6
:100E200000F0D081236813F0020F74D07E4B9B68D2
:100E300013F00C0F5ED07C4B9B6803F00C03082B67
:100E400053D0E368002B00F08980774A136843F0A1
:100E50000103136000F066FC0546734B1B6813F03A
:100E6000020F72D100F05EFC401B0228F5D903206E
:100E7000ADE16D4A136843F48033136063682BB3AC
:100E800000F050FC0546684B1B6813F4003FC9D1C5
:100E900000F048FC401B6428F5D9032097E1B3F526
:100EA000A02F09D0604B1A6822F480321A601A68A9
:100EB00022F480221A60E1E75B4B1A6842F4802238
:100EC0001A601A6842F480321A60D7E700F02AFCF0
:100ED0000546554B1B6813F4003FA3D000F022FCDD
:100EE000401B6428F5D9032071E14F4B5B6813F474
:100EF000800FA6D14C4B1B6813F0020F03D0E368A0
:100F0000012B40F06181484A136823F0F8032169FE
:100F100043EAC1031360236813F0080F46D06369E6
:100F200083B3414A536F43F00103536700F0FAFB68
:100F300005463D4B5B6F13F0020F37D100F0F2FB1B
:100F4000401B0228F5D9032041E1374A136823F0FA
:100F5000F803216943EAC1031360DCE7324A1368EE
:100F600023F00103136000F0DDFB05462E4B1B68E8
:100F700013F0020FCFD000F0D5FB401B0228F5D9AB
:100F8000032024E1284A536F23F00103536700F044
:100F9000C9FB0546244B5B6F13F0020F06D000F02F
:100FA000C1FB401B0228F5D9032010E1236813F090
:100FB000040F7DD01C4B1B6C13F0805F1ED11A4BAD
:100FC0001A6C42F080521A641B6C03F08053019338
:100FD000019B0125154B1B6813F4807F10D0A3687B
:100FE000012B25D0002B3BD10F4B1A6F22F00102B1
:100FF0001A671A6F22F004021A671EE00025E9E75B
:101000000A4A136843F48073136000F08BFB0646B2
:10101000064B1B6813F4807FE1D100F083FB801B3B
:101020006428F5D90320D2E0003802400070004067
:101030006E4A136F43F001031367A36833B300F0E4
:1010400071FB0646694B1B6F13F0020F2FD100F0A6
:1010500069FB801B41F288339842F3D90320B6E044
:10106000052B09D0614B1A6F22F001021A671A6F23
:1010700022F004021A67E0E75C4B1A6F42F00402A8
:101080001A671A6F42F001021A67D6E700F04AFBAE
:101090000646564B1B6F13F0020F08D000F042FBC0
:1010A000801B41F288339842F3D903208FE0FDB9C9
:1010B000A369002B00F08A804C4A926802F00C026F
:1010C000082A58D0022B19D0484A136823F080739D
:1010D000136000F027FB0446444B1B6813F0007FAD
:1010E00047D000F01FFB001B0228F5D903206EE05B
:1010F0003E4A136C23F080531364D9E73B4A1368CC
:1011000023F08073136000F00DFB0546374B1B681E
:1011100013F0007F06D000F005FB401B0228F5D934
:10112000032054E0E369226A1343626A43EA8213AC
:10113000A26A5208013A43EA0243E26A43EA0263BE
:1011400043F00053294A5360136843F080731360DF
:1011500000F0E8FA0446254B1B6813F0007F06D127
:1011600000F0E0FA001B0228F5D903202FE0002050
:101170002DE000202BE01D4A5268012B29D002F4FB
:101180008003E1698B4226D102F03F03216A8B4242
:1011900023D1616A47F6C0731340B3EB811F1ED1A0
:1011A00002F44031A36A5B08013BB1EB034F18D155
:1011B00002F07062E36AB2EB036F14D1002006E024
:1011C00001207047012002E0012000E0002002B071
:1011D00070BD0120FBE70120F9E70120F7E70120BE
:1011E000F5E70120F3E70120F1E700BF00380240F6
:1011F00008B5334B9B6803F00C03042B5BD0082B22
:101200005BD12F4B5A6802F03F025B6813F4800FEA
:101210002CD02B4B5868C0F388104FEA401CBCEB15
:10122000000C6EEB0E0E4FEA8E1343EA9C634FEAFE
:101230008C11B1EB0C0163EB0E03DB0043EA51733D
:10124000C90011EB000C43F10003590200234FEADF
:101250004C2041EADC51FFF791F9194B5B68C3F36D
:10126000014301335B00B0FBF3F008BD144B586839
:10127000C0F388104FEA401CBCEB000C6EEB0E0E66
:101280004FEA8E1343EA9C634FEA8C11B1EB0C01D9
:1012900063EB0E03DB0043EA5173C90011EB000C52
:1012A00043F10003990200234FEA8C2041EA9C514C
:1012B000FFF764F9D1E70348D7E70348D5E700BF54
:1012C0000038024000127A000024F400002800F0E8
:1012D000A08070B50D460446524B1B6803F00F0307
:1012E0008B420BD24F4A136823F00F030B4313605A
:1012F000136803F00F038B4240F08D80236813F0D6
:10130000020F17D013F0040F04D0474A936843F438
:10131000E0539360236813F0080F04D0424A9368A7
:1013200043F460439360404A936823F0F003A1685C
:101330000B439360236813F0010F31D06368012BD6
:1013400020D0022B25D0384A126812F0020F64D048
:1013500035498A6822F0030213438B6000F0E2F9FA
:101360000646314B9B6803F00C036268B3EB820FB7
:1013700016D000F0D7F9801B41F288339842F0D99B
:10138000032045E0284A126812F4003FE0D1012012
:101390003EE0254A126812F0007FD9D1012037E0E3
:1013A000204B1B6803F00F03AB420AD91D4A136898
:1013B00023F00F032B431360136803F00F03AB42BA
:1013C0002DD1236813F0040F06D0174A936823F435
:1013D000E053E1680B439360236813F0080F07D0D4
:1013E000114A936823F46043216943EAC10393607F
:1013F000FFF7FEFE0C4B9B68C3F303130B4AD35C51
:10140000D8400B4B18600B4B186800F04DF90020CA
:1014100070BD012070470120FAE70120F8E70120A4
:10142000F6E700BF003C0240003802407818000890
:10143000080000200400002000230F2B00F2E780AA
:1014400070B582B065E085684FEA430E032404FA64
:101450000EF425EA0405CC6804FA0EF42C438460EB
:10146000446824EA02044A68C2F300129A40224304
:1014700042605CE0DC08083450F8242003F00705E3
:10148000AD004FF00F0E0EFA05FE22EA0E0E0A69AD
:10149000AA4042EA0E0240F824205CE0072200E065
:1014A000002202FA0EF22A430234594D45F8242054
:1014B000584A94686FEA0C0224EA0C054E6816F448
:1014C000801F01D04CEA0405524CA560E46802EA92
:1014D00004054E6816F4001F01D04CEA04054D4C7B
:1014E000E560646802EA04054E6816F4003F01D026
:1014F0004CEA0405474C6560246822404D6815F4A9
:10150000803F01D04CEA0402424C226001330F2B91
:101510007BD801229A400C6804EA020C32EA0404E7
:10152000F4D14C6804F00304013C012C8BD94A68C7
:1015300002F00302032A09D0C4685D000322AA4016
:1015400024EA02048A68AA402243C2604A6802F080
:101550000302022A8ED004684FEA430E032202FAE5
:101560000EF224EA02044A6802F0030202FA0EF2C2
:10157000224302604A6812F4403FC7D0264A546CA6
:1015800044F480445464526C02F480420192019A03
:101590009C08A51C1E4A52F8255003F0030E4FEA82
:1015A0008E0E0F2202FA0EF225EA02051B4A904225
:1015B0003FF476AF02F5806290421AD002F5806265
:1015C000904218D002F58062904216D002F58062F7
:1015D000904214D002F58062904212D002F58062EF
:1015E000904210D002F5806290423FF457AF08223B
:1015F00057E7012255E7022253E7032251E704226D
:101600004FE705224DE706224BE702B070BD704759
:1016100000380140003C0140003802400000024018
:101620000AB18161704709048161704710B582B0C9
:101630001B4B1A6C42F080521A641B6C03F08053EF
:101640000193019B174A136843F48033136000F041
:1016500069F80446134B5B6813F4803F08D100F02F
:1016600061F8001BB0F57A7FF4D9032002B010BDF9
:101670000C4A136843F40033136000F053F8044637
:10168000084B5B6813F4003F07D100F04BF8001BD8
:10169000B0F57A7FF4D90320E8E70020E6E700BF41
:1016A000003802400070004010B504460E4B1A7816
:1016B0004FF47A73B3FBF2F30C4A1068B0FBF3F00B
:1016C000FFF71EFB68B90F2C01D901200AE00022A8
:1016D00021464FF0FF30FFF703FB054B1C60002055
:1016E00000E0012010BD00BF000000200800002025
:1016F0000400002008B50320FFF7E0FA0020FFF700
:10170000D3FFFFF791FA002008BD0000034A1168DB
:10171000034B1B780B441360704700BF2802002066
:1017200000000020014B1868704700BF280200200D
:1017300038B50446FFF7F6FF0546B4F1FF3F02D087
:10174000044B1B781C44FFF7EDFF401BA042FAD36B
:1017500038BD00BF00000020034AD2F8883043F4AF
:101760007003C2F88830704700ED00E0DFF834D035
:10177000FFF7F2FF0C480D490D4A002302E0D45850
:10178000C4500433C4188C42F9D30A4A0A4C0023CB
:1017900001E013600432A242FBD3FEF7F3FDFFF732
:1017A00003FA704700000420000000200C00002015
:1017B000981800080C0000202C020020FEE7000012
:1017C000F8B500BFF8BC08BC9E467047F8B500BF2E
:0817D000F8BC08BC9E467047FE
:1017D8002E2D00002D2E2E2E000000002D2E2D2E39
:1017E800000000002D2E2E002E0000002E2E2D2E83
:1017F800000000002D2D2E002E2E2E2E00000000A1
:101808002E2E00002E2D2D2D000000002D2E2D0037
:101818002E2D2E2E000000002D2D00002D2E000054
:101828002D2D2D002E2D2D2E000000002D2D2E2DBE
:10183800000000002E2D2E002E2E2E002D00000060
:101848002E2E2D002E2E2E2D000000002E2D2D00C8
:101858002D2E2E2D000000002D2E2D2D0000000015
:101868002D2D2E2E000000007C00000048454C0065
:101878000000000000000000010203040607080938
:0818880078EBFF7F0100000076
:0418900069020008E1
:041894004102000805
:0C18980001000000100000000024F4001B
:040000050800176D6B
:00000001FF
